{
  "address": "0x6376F755875A8F58Eb70D940e4696889E11E5aFc",
  "abi": [
    {
      "inputs": [
        {
          "internalType": "address",
          "name": "vrfCoordinatorV2",
          "type": "address"
        },
        {
          "internalType": "uint64",
          "name": "subscriptionId",
          "type": "uint64"
        },
        {
          "internalType": "bytes32",
          "name": "gasLane",
          "type": "bytes32"
        },
        {
          "internalType": "uint32",
          "name": "callbackGasLimit",
          "type": "uint32"
        },
        {
          "internalType": "string[3]",
          "name": "dogTokenUris",
          "type": "string[3]"
        },
        {
          "internalType": "uint256",
          "name": "mintFee",
          "type": "uint256"
        }
      ],
      "stateMutability": "nonpayable",
      "type": "constructor"
    },
    {
      "inputs": [],
      "name": "AlreadyInitialized",
      "type": "error"
    },
    {
      "inputs": [
        {
          "internalType": "address",
          "name": "have",
          "type": "address"
        },
        {
          "internalType": "address",
          "name": "want",
          "type": "address"
        }
      ],
      "name": "OnlyCoordinatorCanFulfill",
      "type": "error"
    },
    {
      "inputs": [],
      "name": "RandomIpfsNft__NeedmoreETH",
      "type": "error"
    },
    {
      "inputs": [],
      "name": "RandomIpfsNft__RangeOutOfBounds",
      "type": "error"
    },
    {
      "inputs": [],
      "name": "RandomIpfsNft__TransferFailed",
      "type": "error"
    },
    {
      "anonymous": false,
      "inputs": [
        {
          "indexed": true,
          "internalType": "address",
          "name": "owner",
          "type": "address"
        },
        {
          "indexed": true,
          "internalType": "address",
          "name": "approved",
          "type": "address"
        },
        {
          "indexed": true,
          "internalType": "uint256",
          "name": "tokenId",
          "type": "uint256"
        }
      ],
      "name": "Approval",
      "type": "event"
    },
    {
      "anonymous": false,
      "inputs": [
        {
          "indexed": true,
          "internalType": "address",
          "name": "owner",
          "type": "address"
        },
        {
          "indexed": true,
          "internalType": "address",
          "name": "operator",
          "type": "address"
        },
        {
          "indexed": false,
          "internalType": "bool",
          "name": "approved",
          "type": "bool"
        }
      ],
      "name": "ApprovalForAll",
      "type": "event"
    },
    {
      "anonymous": false,
      "inputs": [
        {
          "indexed": false,
          "internalType": "enum RandomIpfsNft.Breed",
          "name": "dogBreed",
          "type": "uint8"
        },
        {
          "indexed": false,
          "internalType": "address",
          "name": "minter",
          "type": "address"
        }
      ],
      "name": "NFTMinted",
      "type": "event"
    },
    {
      "anonymous": false,
      "inputs": [
        {
          "indexed": true,
          "internalType": "uint256",
          "name": "requestId",
          "type": "uint256"
        },
        {
          "indexed": false,
          "internalType": "address",
          "name": "requester",
          "type": "address"
        }
      ],
      "name": "NFTRequested",
      "type": "event"
    },
    {
      "anonymous": false,
      "inputs": [
        {
          "indexed": true,
          "internalType": "address",
          "name": "previousOwner",
          "type": "address"
        },
        {
          "indexed": true,
          "internalType": "address",
          "name": "newOwner",
          "type": "address"
        }
      ],
      "name": "OwnershipTransferred",
      "type": "event"
    },
    {
      "anonymous": false,
      "inputs": [
        {
          "indexed": true,
          "internalType": "address",
          "name": "from",
          "type": "address"
        },
        {
          "indexed": true,
          "internalType": "address",
          "name": "to",
          "type": "address"
        },
        {
          "indexed": true,
          "internalType": "uint256",
          "name": "tokenId",
          "type": "uint256"
        }
      ],
      "name": "Transfer",
      "type": "event"
    },
    {
      "inputs": [
        {
          "internalType": "address",
          "name": "to",
          "type": "address"
        },
        {
          "internalType": "uint256",
          "name": "tokenId",
          "type": "uint256"
        }
      ],
      "name": "approve",
      "outputs": [],
      "stateMutability": "nonpayable",
      "type": "function"
    },
    {
      "inputs": [
        {
          "internalType": "address",
          "name": "owner",
          "type": "address"
        }
      ],
      "name": "balanceOf",
      "outputs": [
        {
          "internalType": "uint256",
          "name": "",
          "type": "uint256"
        }
      ],
      "stateMutability": "view",
      "type": "function"
    },
    {
      "inputs": [
        {
          "internalType": "uint256",
          "name": "tokenId",
          "type": "uint256"
        }
      ],
      "name": "getApproved",
      "outputs": [
        {
          "internalType": "address",
          "name": "",
          "type": "address"
        }
      ],
      "stateMutability": "view",
      "type": "function"
    },
    {
      "inputs": [
        {
          "internalType": "uint256",
          "name": "moddedRng",
          "type": "uint256"
        }
      ],
      "name": "getBreedFromModdedRng",
      "outputs": [
        {
          "internalType": "enum RandomIpfsNft.Breed",
          "name": "",
          "type": "uint8"
        }
      ],
      "stateMutability": "pure",
      "type": "function"
    },
    {
      "inputs": [],
      "name": "getChanceArray",
      "outputs": [
        {
          "internalType": "uint256[3]",
          "name": "",
          "type": "uint256[3]"
        }
      ],
      "stateMutability": "pure",
      "type": "function"
    },
    {
      "inputs": [],
      "name": "getDogTokenUris",
      "outputs": [
        {
          "internalType": "string[]",
          "name": "",
          "type": "string[]"
        }
      ],
      "stateMutability": "view",
      "type": "function"
    },
    {
      "inputs": [],
      "name": "getMintFee",
      "outputs": [
        {
          "internalType": "uint256",
          "name": "",
          "type": "uint256"
        }
      ],
      "stateMutability": "view",
      "type": "function"
    },
    {
      "inputs": [],
      "name": "getTokenCounter",
      "outputs": [
        {
          "internalType": "uint256",
          "name": "",
          "type": "uint256"
        }
      ],
      "stateMutability": "view",
      "type": "function"
    },
    {
      "inputs": [
        {
          "internalType": "address",
          "name": "owner",
          "type": "address"
        },
        {
          "internalType": "address",
          "name": "operator",
          "type": "address"
        }
      ],
      "name": "isApprovedForAll",
      "outputs": [
        {
          "internalType": "bool",
          "name": "",
          "type": "bool"
        }
      ],
      "stateMutability": "view",
      "type": "function"
    },
    {
      "inputs": [],
      "name": "name",
      "outputs": [
        {
          "internalType": "string",
          "name": "",
          "type": "string"
        }
      ],
      "stateMutability": "view",
      "type": "function"
    },
    {
      "inputs": [],
      "name": "owner",
      "outputs": [
        {
          "internalType": "address",
          "name": "",
          "type": "address"
        }
      ],
      "stateMutability": "view",
      "type": "function"
    },
    {
      "inputs": [
        {
          "internalType": "uint256",
          "name": "tokenId",
          "type": "uint256"
        }
      ],
      "name": "ownerOf",
      "outputs": [
        {
          "internalType": "address",
          "name": "",
          "type": "address"
        }
      ],
      "stateMutability": "view",
      "type": "function"
    },
    {
      "inputs": [
        {
          "internalType": "uint256",
          "name": "requestId",
          "type": "uint256"
        },
        {
          "internalType": "uint256[]",
          "name": "randomWords",
          "type": "uint256[]"
        }
      ],
      "name": "rawFulfillRandomWords",
      "outputs": [],
      "stateMutability": "nonpayable",
      "type": "function"
    },
    {
      "inputs": [],
      "name": "renounceOwnership",
      "outputs": [],
      "stateMutability": "nonpayable",
      "type": "function"
    },
    {
      "inputs": [],
      "name": "requestNft",
      "outputs": [
        {
          "internalType": "uint256",
          "name": "requestId",
          "type": "uint256"
        }
      ],
      "stateMutability": "payable",
      "type": "function"
    },
    {
      "inputs": [
        {
          "internalType": "uint256",
          "name": "",
          "type": "uint256"
        }
      ],
      "name": "s_requestIdToSender",
      "outputs": [
        {
          "internalType": "address",
          "name": "",
          "type": "address"
        }
      ],
      "stateMutability": "view",
      "type": "function"
    },
    {
      "inputs": [],
      "name": "s_tokenCounter",
      "outputs": [
        {
          "internalType": "uint256",
          "name": "",
          "type": "uint256"
        }
      ],
      "stateMutability": "view",
      "type": "function"
    },
    {
      "inputs": [
        {
          "internalType": "address",
          "name": "from",
          "type": "address"
        },
        {
          "internalType": "address",
          "name": "to",
          "type": "address"
        },
        {
          "internalType": "uint256",
          "name": "tokenId",
          "type": "uint256"
        }
      ],
      "name": "safeTransferFrom",
      "outputs": [],
      "stateMutability": "nonpayable",
      "type": "function"
    },
    {
      "inputs": [
        {
          "internalType": "address",
          "name": "from",
          "type": "address"
        },
        {
          "internalType": "address",
          "name": "to",
          "type": "address"
        },
        {
          "internalType": "uint256",
          "name": "tokenId",
          "type": "uint256"
        },
        {
          "internalType": "bytes",
          "name": "data",
          "type": "bytes"
        }
      ],
      "name": "safeTransferFrom",
      "outputs": [],
      "stateMutability": "nonpayable",
      "type": "function"
    },
    {
      "inputs": [
        {
          "internalType": "address",
          "name": "operator",
          "type": "address"
        },
        {
          "internalType": "bool",
          "name": "approved",
          "type": "bool"
        }
      ],
      "name": "setApprovalForAll",
      "outputs": [],
      "stateMutability": "nonpayable",
      "type": "function"
    },
    {
      "inputs": [
        {
          "internalType": "bytes4",
          "name": "interfaceId",
          "type": "bytes4"
        }
      ],
      "name": "supportsInterface",
      "outputs": [
        {
          "internalType": "bool",
          "name": "",
          "type": "bool"
        }
      ],
      "stateMutability": "view",
      "type": "function"
    },
    {
      "inputs": [],
      "name": "symbol",
      "outputs": [
        {
          "internalType": "string",
          "name": "",
          "type": "string"
        }
      ],
      "stateMutability": "view",
      "type": "function"
    },
    {
      "inputs": [
        {
          "internalType": "uint256",
          "name": "tokenId",
          "type": "uint256"
        }
      ],
      "name": "tokenURI",
      "outputs": [
        {
          "internalType": "string",
          "name": "",
          "type": "string"
        }
      ],
      "stateMutability": "view",
      "type": "function"
    },
    {
      "inputs": [
        {
          "internalType": "address",
          "name": "from",
          "type": "address"
        },
        {
          "internalType": "address",
          "name": "to",
          "type": "address"
        },
        {
          "internalType": "uint256",
          "name": "tokenId",
          "type": "uint256"
        }
      ],
      "name": "transferFrom",
      "outputs": [],
      "stateMutability": "nonpayable",
      "type": "function"
    },
    {
      "inputs": [
        {
          "internalType": "address",
          "name": "newOwner",
          "type": "address"
        }
      ],
      "name": "transferOwnership",
      "outputs": [],
      "stateMutability": "nonpayable",
      "type": "function"
    },
    {
      "inputs": [],
      "name": "withdraw",
      "outputs": [],
      "stateMutability": "nonpayable",
      "type": "function"
    }
  ],
  "transactionHash": "0x54a39cd337b4fd5b7bd7fe7cbad970240a5fb85c3654218cfd21afb466105699",
  "args": [
    "0x6168499c0cFfCaCD319c818142124B7A15E857ab",
    "8219",
    "0xd89b2bf150e3b9e13446986e571fb9cab24b13cea0a43ea20a6049a85cc807cc",
    "50000000",
    [
      "ipfs://QmTeL2Em93gmzE84Wh76qDByGxd4DT2mcC8bu5uGZ9ZAfj",
      "ipfs://QmTEo9t4iBVFGDmWft36WxcAAEUHDKvY9BcYB5TU2WjMbz",
      "ipfs://QmctUhQa1u2c6SiyfrX3vqi8p6E9DfrtMFH8HRZ7u7VPeG"
    ],
    "10000000000000000"
  ],
  "numDeployments": 2,
  "solcInputHash": "c812be1234e411cae27d1e8e62113efc",
  "bytecode": "0x6101406040523480156200001257600080fd5b50604051620044d0380380620044d0833981810160405281019062000038919062000896565b6040518060400160405280600f81526020017f52616e646f6d2049504653204e465400000000000000000000000000000000008152506040518060400160405280600381526020017f52494e0000000000000000000000000000000000000000000000000000000000815250878073ffffffffffffffffffffffffffffffffffffffff1660808173ffffffffffffffffffffffffffffffffffffffff1660601b81525050508160009080519060200190620000f592919062000329565b5080600190805190602001906200010e92919062000329565b5050506200013162000125620001e160201b60201c565b620001e960201b60201c565b8573ffffffffffffffffffffffffffffffffffffffff1660a08173ffffffffffffffffffffffffffffffffffffffff1660601b815250508467ffffffffffffffff1660c08167ffffffffffffffff1660c01b815250508360e081815250508263ffffffff166101008163ffffffff1660e01b8152505081600a906003620001ba929190620003ba565b50806101208181525050620001d582620002af60201b60201c565b505050505050620009b6565b600033905090565b6000600760009054906101000a900473ffffffffffffffffffffffffffffffffffffffff16905081600760006101000a81548173ffffffffffffffffffffffffffffffffffffffff021916908373ffffffffffffffffffffffffffffffffffffffff1602179055508173ffffffffffffffffffffffffffffffffffffffff168173ffffffffffffffffffffffffffffffffffffffff167f8be0079c531659141344cd1fd0a4f28419497f9722a3daafe3b4186f6b6457e060405160405180910390a35050565b600b60009054906101000a900460ff1615620002f7576040517f0dc149f000000000000000000000000000000000000000000000000000000000815260040160405180910390fd5b80600a9060036200030a929190620003ba565b506001600b60006101000a81548160ff02191690831515021790555050565b828054620003379062000980565b90600052602060002090601f0160209004810192826200035b5760008555620003a7565b82601f106200037657805160ff1916838001178555620003a7565b82800160010185558215620003a7579182015b82811115620003a657825182559160200191906001019062000389565b5b509050620003b6919062000421565b5090565b8280548282559060005260206000209081019282156200040e579160200282015b828111156200040d578251829080519060200190620003fc92919062000329565b5091602001919060010190620003db565b5b5090506200041d919062000440565b5090565b5b808211156200043c57600081600090555060010162000422565b5090565b5b808211156200046457600081816200045a919062000468565b5060010162000441565b5090565b508054620004769062000980565b6000825580601f106200048a5750620004ab565b601f016020900490600052602060002090810190620004aa919062000421565b5b50565b6000604051905090565b600080fd5b600080fd5b600073ffffffffffffffffffffffffffffffffffffffff82169050919050565b6000620004ef82620004c2565b9050919050565b6200050181620004e2565b81146200050d57600080fd5b50565b6000815190506200052181620004f6565b92915050565b600067ffffffffffffffff82169050919050565b620005468162000527565b81146200055257600080fd5b50565b60008151905062000566816200053b565b92915050565b6000819050919050565b62000581816200056c565b81146200058d57600080fd5b50565b600081519050620005a18162000576565b92915050565b600063ffffffff82169050919050565b620005c281620005a7565b8114620005ce57600080fd5b50565b600081519050620005e281620005b7565b92915050565b600080fd5b6000601f19601f8301169050919050565b7f4e487b7100000000000000000000000000000000000000000000000000000000600052604160045260246000fd5b6200063882620005ed565b810181811067ffffffffffffffff821117156200065a5762000659620005fe565b5b80604052505050565b60006200066f620004ae565b90506200067d82826200062d565b919050565b600067ffffffffffffffff821115620006a0576200069f620005fe565b5b602082029050919050565b600080fd5b600080fd5b600067ffffffffffffffff821115620006d357620006d2620005fe565b5b620006de82620005ed565b9050602081019050919050565b60005b838110156200070b578082015181840152602081019050620006ee565b838111156200071b576000848401525b50505050565b6000620007386200073284620006b5565b62000663565b905082815260208101848484011115620007575762000756620006b0565b5b62000764848285620006eb565b509392505050565b600082601f830112620007845762000783620005e8565b5b81516200079684826020860162000721565b91505092915050565b6000620007b6620007b08462000682565b62000663565b90508060208402830185811115620007d357620007d2620006ab565b5b835b818110156200082157805167ffffffffffffffff811115620007fc57620007fb620005e8565b5b8086016200080b89826200076c565b85526020850194505050602081019050620007d5565b5050509392505050565b600082601f830112620008435762000842620005e8565b5b6003620008528482856200079f565b91505092915050565b6000819050919050565b62000870816200085b565b81146200087c57600080fd5b50565b600081519050620008908162000865565b92915050565b60008060008060008060c08789031215620008b657620008b5620004b8565b5b6000620008c689828a0162000510565b9650506020620008d989828a0162000555565b9550506040620008ec89828a0162000590565b9450506060620008ff89828a01620005d1565b935050608087015167ffffffffffffffff811115620009235762000922620004bd565b5b6200093189828a016200082b565b92505060a06200094489828a016200087f565b9150509295509295509295565b7f4e487b7100000000000000000000000000000000000000000000000000000000600052602260045260246000fd5b600060028204905060018216806200099957607f821691505b60208210811415620009b057620009af62000951565b5b50919050565b60805160601c60a05160601c60c05160c01c60e0516101005160e01c61012051613ab062000a2060003960008181610cb40152610f86015260006110600152600061101c0152600061103d01526000610fe001526000818161090b015261095f0152613ab06000f3fe6080604052600436106101815760003560e01c8063715018a6116100d1578063a36f573b1161008a578063b88d4fde11610064578063b88d4fde14610565578063c87b56dd1461058e578063e985e9c5146105cb578063f2fde38b1461060857610181565b8063a36f573b146104cd578063a51cccf31461050a578063aa1524911461054757610181565b8063715018a6146103e15780637a5caab3146103f8578063838ec5e9146104235780638da5cb5b1461044e57806395d89b4114610479578063a22cb465146104a457610181565b806323b872dd1161013e5780635dacf5f4116101185780635dacf5f4146103115780636352211e1461033c5780636e02007d1461037957806370a08231146103a457610181565b806323b872dd146102a85780633ccfd60b146102d157806342842e0e146102e857610181565b806301ffc9a71461018657806306fdde03146101c3578063081812fc146101ee578063095ea7b31461022b5780630b21a83b146102545780631fe543e31461027f575b600080fd5b34801561019257600080fd5b506101ad60048036038101906101a89190612530565b610631565b6040516101ba9190612578565b60405180910390f35b3480156101cf57600080fd5b506101d8610713565b6040516101e5919061262c565b60405180910390f35b3480156101fa57600080fd5b5061021560048036038101906102109190612684565b6107a5565b60405161022291906126f2565b60405180910390f35b34801561023757600080fd5b50610252600480360381019061024d9190612739565b6107eb565b005b34801561026057600080fd5b50610269610903565b6040516102769190612788565b60405180910390f35b34801561028b57600080fd5b506102a660048036038101906102a191906128eb565b610909565b005b3480156102b457600080fd5b506102cf60048036038101906102ca9190612947565b6109c9565b005b3480156102dd57600080fd5b506102e6610a29565b005b3480156102f457600080fd5b5061030f600480360381019061030a9190612947565b610add565b005b34801561031d57600080fd5b50610326610afd565b6040516103339190612a45565b60405180910390f35b34801561034857600080fd5b50610363600480360381019061035e9190612684565b610b28565b60405161037091906126f2565b60405180910390f35b34801561038557600080fd5b5061038e610bda565b60405161039b9190612788565b60405180910390f35b3480156103b057600080fd5b506103cb60048036038101906103c69190612a60565b610be4565b6040516103d89190612788565b60405180910390f35b3480156103ed57600080fd5b506103f6610c9c565b005b34801561040457600080fd5b5061040d610cb0565b60405161041a9190612788565b60405180910390f35b34801561042f57600080fd5b50610438610cd8565b6040516104459190612b99565b60405180910390f35b34801561045a57600080fd5b50610463610db1565b60405161047091906126f2565b60405180910390f35b34801561048557600080fd5b5061048e610ddb565b60405161049b919061262c565b60405180910390f35b3480156104b057600080fd5b506104cb60048036038101906104c69190612be7565b610e6d565b005b3480156104d957600080fd5b506104f460048036038101906104ef9190612684565b610e83565b60405161050191906126f2565b60405180910390f35b34801561051657600080fd5b50610531600480360381019061052c9190612684565b610eb6565b60405161053e9190612c9e565b60405180910390f35b61054f610f82565b60405161055c9190612788565b60405180910390f35b34801561057157600080fd5b5061058c60048036038101906105879190612d6e565b611182565b005b34801561059a57600080fd5b506105b560048036038101906105b09190612684565b6111e4565b6040516105c2919061262c565b60405180910390f35b3480156105d757600080fd5b506105f260048036038101906105ed9190612df1565b6112f7565b6040516105ff9190612578565b60405180910390f35b34801561061457600080fd5b5061062f600480360381019061062a9190612a60565b61138b565b005b60007f80ac58cd000000000000000000000000000000000000000000000000000000007bffffffffffffffffffffffffffffffffffffffffffffffffffffffff1916827bffffffffffffffffffffffffffffffffffffffffffffffffffffffff191614806106fc57507f5b5e139f000000000000000000000000000000000000000000000000000000007bffffffffffffffffffffffffffffffffffffffffffffffffffffffff1916827bffffffffffffffffffffffffffffffffffffffffffffffffffffffff1916145b8061070c575061070b8261140f565b5b9050919050565b60606000805461072290612e60565b80601f016020809104026020016040519081016040528092919081815260200182805461074e90612e60565b801561079b5780601f106107705761010080835404028352916020019161079b565b820191906000526020600020905b81548152906001019060200180831161077e57829003601f168201915b5050505050905090565b60006107b082611479565b6004600083815260200190815260200160002060009054906101000a900473ffffffffffffffffffffffffffffffffffffffff169050919050565b60006107f682610b28565b90508073ffffffffffffffffffffffffffffffffffffffff168373ffffffffffffffffffffffffffffffffffffffff161415610867576040517f08c379a000000000000000000000000000000000000000000000000000000000815260040161085e90612f04565b60405180910390fd5b8073ffffffffffffffffffffffffffffffffffffffff166108866114c4565b73ffffffffffffffffffffffffffffffffffffffff1614806108b557506108b4816108af6114c4565b6112f7565b5b6108f4576040517f08c379a00000000000000000000000000000000000000000000000000000000081526004016108eb90612f96565b60405180910390fd5b6108fe83836114cc565b505050565b60095481565b7f000000000000000000000000000000000000000000000000000000000000000073ffffffffffffffffffffffffffffffffffffffff163373ffffffffffffffffffffffffffffffffffffffff16146109bb57337f00000000000000000000000000000000000000000000000000000000000000006040517f1cf993f40000000000000000000000000000000000000000000000000000000081526004016109b2929190612fb6565b60405180910390fd5b6109c58282611585565b5050565b6109da6109d46114c4565b8261171f565b610a19576040517f08c379a0000000000000000000000000000000000000000000000000000000008152600401610a1090613051565b60405180910390fd5b610a248383836117b4565b505050565b610a31611a1b565b600047905060003373ffffffffffffffffffffffffffffffffffffffff1682604051610a5c906130a2565b60006040518083038185875af1925050503d8060008114610a99576040519150601f19603f3d011682016040523d82523d6000602084013e610a9e565b606091505b5050905080610ad9576040517fca7e25b700000000000000000000000000000000000000000000000000000000815260040160405180910390fd5b5050565b610af883838360405180602001604052806000815250611182565b505050565b610b056123ff565b6040518060600160405280600a8152602001601e81526020016064815250905090565b6000806002600084815260200190815260200160002060009054906101000a900473ffffffffffffffffffffffffffffffffffffffff169050600073ffffffffffffffffffffffffffffffffffffffff168173ffffffffffffffffffffffffffffffffffffffff161415610bd1576040517f08c379a0000000000000000000000000000000000000000000000000000000008152600401610bc890613103565b60405180910390fd5b80915050919050565b6000600954905090565b60008073ffffffffffffffffffffffffffffffffffffffff168273ffffffffffffffffffffffffffffffffffffffff161415610c55576040517f08c379a0000000000000000000000000000000000000000000000000000000008152600401610c4c90613195565b60405180910390fd5b600360008373ffffffffffffffffffffffffffffffffffffffff1673ffffffffffffffffffffffffffffffffffffffff168152602001908152602001600020549050919050565b610ca4611a1b565b610cae6000611a99565b565b60007f0000000000000000000000000000000000000000000000000000000000000000905090565b6060600a805480602002602001604051908101604052809291908181526020016000905b82821015610da8578382906000526020600020018054610d1b90612e60565b80601f0160208091040260200160405190810160405280929190818152602001828054610d4790612e60565b8015610d945780601f10610d6957610100808354040283529160200191610d94565b820191906000526020600020905b815481529060010190602001808311610d7757829003601f168201915b505050505081526020019060010190610cfc565b50505050905090565b6000600760009054906101000a900473ffffffffffffffffffffffffffffffffffffffff16905090565b606060018054610dea90612e60565b80601f0160208091040260200160405190810160405280929190818152602001828054610e1690612e60565b8015610e635780601f10610e3857610100808354040283529160200191610e63565b820191906000526020600020905b815481529060010190602001808311610e4657829003601f168201915b5050505050905090565b610e7f610e786114c4565b8383611b5f565b5050565b60086020528060005260406000206000915054906101000a900473ffffffffffffffffffffffffffffffffffffffff1681565b600080600090506000610ec7610afd565b905060005b6003811015610f4a57828510158015610efb5750818160038110610ef357610ef26131b5565b5b602002015185105b15610f1d57806002811115610f1357610f12612c27565b5b9350505050610f7d565b818160038110610f3057610f2f6131b5565b5b602002015192508080610f4290613213565b915050610ecc565b506040517f12806c9d00000000000000000000000000000000000000000000000000000000815260040160405180910390fd5b919050565b60007f0000000000000000000000000000000000000000000000000000000000000000341015610fde576040517f6e62d3ed00000000000000000000000000000000000000000000000000000000815260040160405180910390fd5b7f000000000000000000000000000000000000000000000000000000000000000073ffffffffffffffffffffffffffffffffffffffff16635d3b1d307f00000000000000000000000000000000000000000000000000000000000000007f000000000000000000000000000000000000000000000000000000000000000060037f000000000000000000000000000000000000000000000000000000000000000060016040518663ffffffff1660e01b81526004016110a19594939291906132d4565b602060405180830381600087803b1580156110bb57600080fd5b505af11580156110cf573d6000803e3d6000fd5b505050506040513d601f19601f820116820180604052508101906110f3919061333c565b9050336008600083815260200190815260200160002060006101000a81548173ffffffffffffffffffffffffffffffffffffffff021916908373ffffffffffffffffffffffffffffffffffffffff160217905550807f4e1c2f1eae56e29ec039a2b882eec626e6c420ed5a5b93a203c8b8b695e911b13360405161117791906126f2565b60405180910390a290565b61119361118d6114c4565b8361171f565b6111d2576040517f08c379a00000000000000000000000000000000000000000000000000000000081526004016111c990613051565b60405180910390fd5b6111de84848484611ccc565b50505050565b60606111ef82611479565b600060066000848152602001908152602001600020805461120f90612e60565b80601f016020809104026020016040519081016040528092919081815260200182805461123b90612e60565b80156112885780601f1061125d57610100808354040283529160200191611288565b820191906000526020600020905b81548152906001019060200180831161126b57829003601f168201915b505050505090506000611299611d28565b90506000815114156112af5781925050506112f2565b6000825111156112e45780826040516020016112cc9291906133a5565b604051602081830303815290604052925050506112f2565b6112ed84611d3f565b925050505b919050565b6000600560008473ffffffffffffffffffffffffffffffffffffffff1673ffffffffffffffffffffffffffffffffffffffff16815260200190815260200160002060008373ffffffffffffffffffffffffffffffffffffffff1673ffffffffffffffffffffffffffffffffffffffff16815260200190815260200160002060009054906101000a900460ff16905092915050565b611393611a1b565b600073ffffffffffffffffffffffffffffffffffffffff168173ffffffffffffffffffffffffffffffffffffffff161415611403576040517f08c379a00000000000000000000000000000000000000000000000000000000081526004016113fa9061343b565b60405180910390fd5b61140c81611a99565b50565b60007f01ffc9a7000000000000000000000000000000000000000000000000000000007bffffffffffffffffffffffffffffffffffffffffffffffffffffffff1916827bffffffffffffffffffffffffffffffffffffffffffffffffffffffff1916149050919050565b61148281611da7565b6114c1576040517f08c379a00000000000000000000000000000000000000000000000000000000081526004016114b890613103565b60405180910390fd5b50565b600033905090565b816004600083815260200190815260200160002060006101000a81548173ffffffffffffffffffffffffffffffffffffffff021916908373ffffffffffffffffffffffffffffffffffffffff160217905550808273ffffffffffffffffffffffffffffffffffffffff1661153f83610b28565b73ffffffffffffffffffffffffffffffffffffffff167f8c5be1e5ebec7d5bd14f71427d1e84f3dd0314c0f7b2291e5b200ac8c7c3b92560405160405180910390a45050565b60006008600084815260200190815260200160002060009054906101000a900473ffffffffffffffffffffffffffffffffffffffff1690506000600954905060016009546115d3919061345b565b60098190555060006064846000815181106115f1576115f06131b5565b5b602002602001015161160391906134e0565b9050600061161082610eb6565b905061161c8484611e13565b6116de83600a83600281111561163557611634612c27565b5b81548110611646576116456131b5565b5b90600052602060002001805461165b90612e60565b80601f016020809104026020016040519081016040528092919081815260200182805461168790612e60565b80156116d45780601f106116a9576101008083540402835291602001916116d4565b820191906000526020600020905b8154815290600101906020018083116116b757829003601f168201915b5050505050611e31565b7fab79897476febbd649710b1bd1dc3e93a316d3dee65f65b022ab89a4b7e206b5818560405161170f929190613511565b60405180910390a1505050505050565b60008061172b83610b28565b90508073ffffffffffffffffffffffffffffffffffffffff168473ffffffffffffffffffffffffffffffffffffffff16148061176d575061176c81856112f7565b5b806117ab57508373ffffffffffffffffffffffffffffffffffffffff16611793846107a5565b73ffffffffffffffffffffffffffffffffffffffff16145b91505092915050565b8273ffffffffffffffffffffffffffffffffffffffff166117d482610b28565b73ffffffffffffffffffffffffffffffffffffffff161461182a576040517f08c379a0000000000000000000000000000000000000000000000000000000008152600401611821906135ac565b60405180910390fd5b600073ffffffffffffffffffffffffffffffffffffffff168273ffffffffffffffffffffffffffffffffffffffff16141561189a576040517f08c379a00000000000000000000000000000000000000000000000000000000081526004016118919061363e565b60405180910390fd5b6118a5838383611ea5565b6118b06000826114cc565b6001600360008573ffffffffffffffffffffffffffffffffffffffff1673ffffffffffffffffffffffffffffffffffffffff1681526020019081526020016000206000828254611900919061365e565b925050819055506001600360008473ffffffffffffffffffffffffffffffffffffffff1673ffffffffffffffffffffffffffffffffffffffff1681526020019081526020016000206000828254611957919061345b565b92505081905550816002600083815260200190815260200160002060006101000a81548173ffffffffffffffffffffffffffffffffffffffff021916908373ffffffffffffffffffffffffffffffffffffffff160217905550808273ffffffffffffffffffffffffffffffffffffffff168473ffffffffffffffffffffffffffffffffffffffff167fddf252ad1be2c89b69c2b068fc378daa952ba7f163c4a11628f55a4df523b3ef60405160405180910390a4611a16838383611eaa565b505050565b611a236114c4565b73ffffffffffffffffffffffffffffffffffffffff16611a41610db1565b73ffffffffffffffffffffffffffffffffffffffff1614611a97576040517f08c379a0000000000000000000000000000000000000000000000000000000008152600401611a8e906136de565b60405180910390fd5b565b6000600760009054906101000a900473ffffffffffffffffffffffffffffffffffffffff16905081600760006101000a81548173ffffffffffffffffffffffffffffffffffffffff021916908373ffffffffffffffffffffffffffffffffffffffff1602179055508173ffffffffffffffffffffffffffffffffffffffff168173ffffffffffffffffffffffffffffffffffffffff167f8be0079c531659141344cd1fd0a4f28419497f9722a3daafe3b4186f6b6457e060405160405180910390a35050565b8173ffffffffffffffffffffffffffffffffffffffff168373ffffffffffffffffffffffffffffffffffffffff161415611bce576040517f08c379a0000000000000000000000000000000000000000000000000000000008152600401611bc59061374a565b60405180910390fd5b80600560008573ffffffffffffffffffffffffffffffffffffffff1673ffffffffffffffffffffffffffffffffffffffff16815260200190815260200160002060008473ffffffffffffffffffffffffffffffffffffffff1673ffffffffffffffffffffffffffffffffffffffff16815260200190815260200160002060006101000a81548160ff0219169083151502179055508173ffffffffffffffffffffffffffffffffffffffff168373ffffffffffffffffffffffffffffffffffffffff167f17307eab39ab6107e8899845ad3d59bd9653f200f220920489ca2b5937696c3183604051611cbf9190612578565b60405180910390a3505050565b611cd78484846117b4565b611ce384848484611eaf565b611d22576040517f08c379a0000000000000000000000000000000000000000000000000000000008152600401611d19906137dc565b60405180910390fd5b50505050565b606060405180602001604052806000815250905090565b6060611d4a82611479565b6000611d54611d28565b90506000815111611d745760405180602001604052806000815250611d9f565b80611d7e84612046565b604051602001611d8f9291906133a5565b6040516020818303038152906040525b915050919050565b60008073ffffffffffffffffffffffffffffffffffffffff166002600084815260200190815260200160002060009054906101000a900473ffffffffffffffffffffffffffffffffffffffff1673ffffffffffffffffffffffffffffffffffffffff1614159050919050565b611e2d8282604051806020016040528060008152506121a7565b5050565b611e3a82611da7565b611e79576040517f08c379a0000000000000000000000000000000000000000000000000000000008152600401611e709061386e565b60405180910390fd5b80600660008481526020019081526020016000209080519060200190611ea0929190612421565b505050565b505050565b505050565b6000611ed08473ffffffffffffffffffffffffffffffffffffffff16612202565b15612039578373ffffffffffffffffffffffffffffffffffffffff1663150b7a02611ef96114c4565b8786866040518563ffffffff1660e01b8152600401611f1b94939291906138e3565b602060405180830381600087803b158015611f3557600080fd5b505af1925050508015611f6657506040513d601f19601f82011682018060405250810190611f639190613944565b60015b611fe9573d8060008114611f96576040519150601f19603f3d011682016040523d82523d6000602084013e611f9b565b606091505b50600081511415611fe1576040517f08c379a0000000000000000000000000000000000000000000000000000000008152600401611fd8906137dc565b60405180910390fd5b805181602001fd5b63150b7a0260e01b7bffffffffffffffffffffffffffffffffffffffffffffffffffffffff1916817bffffffffffffffffffffffffffffffffffffffffffffffffffffffff19161491505061203e565b600190505b949350505050565b6060600082141561208e576040518060400160405280600181526020017f300000000000000000000000000000000000000000000000000000000000000081525090506121a2565b600082905060005b600082146120c05780806120a990613213565b915050600a826120b99190613971565b9150612096565b60008167ffffffffffffffff8111156120dc576120db6127a8565b5b6040519080825280601f01601f19166020018201604052801561210e5781602001600182028036833780820191505090505b5090505b6000851461219b57600182612127919061365e565b9150600a8561213691906134e0565b6030612142919061345b565b60f81b818381518110612158576121576131b5565b5b60200101907effffffffffffffffffffffffffffffffffffffffffffffffffffffffffffff1916908160001a905350600a856121949190613971565b9450612112565b8093505050505b919050565b6121b18383612225565b6121be6000848484611eaf565b6121fd576040517f08c379a00000000000000000000000000000000000000000000000000000000081526004016121f4906137dc565b60405180910390fd5b505050565b6000808273ffffffffffffffffffffffffffffffffffffffff163b119050919050565b600073ffffffffffffffffffffffffffffffffffffffff168273ffffffffffffffffffffffffffffffffffffffff161415612295576040517f08c379a000000000000000000000000000000000000000000000000000000000815260040161228c906139ee565b60405180910390fd5b61229e81611da7565b156122de576040517f08c379a00000000000000000000000000000000000000000000000000000000081526004016122d590613a5a565b60405180910390fd5b6122ea60008383611ea5565b6001600360008473ffffffffffffffffffffffffffffffffffffffff1673ffffffffffffffffffffffffffffffffffffffff168152602001908152602001600020600082825461233a919061345b565b92505081905550816002600083815260200190815260200160002060006101000a81548173ffffffffffffffffffffffffffffffffffffffff021916908373ffffffffffffffffffffffffffffffffffffffff160217905550808273ffffffffffffffffffffffffffffffffffffffff16600073ffffffffffffffffffffffffffffffffffffffff167fddf252ad1be2c89b69c2b068fc378daa952ba7f163c4a11628f55a4df523b3ef60405160405180910390a46123fb60008383611eaa565b5050565b6040518060600160405280600390602082028036833780820191505090505090565b82805461242d90612e60565b90600052602060002090601f01602090048101928261244f5760008555612496565b82601f1061246857805160ff1916838001178555612496565b82800160010185558215612496579182015b8281111561249557825182559160200191906001019061247a565b5b5090506124a391906124a7565b5090565b5b808211156124c05760008160009055506001016124a8565b5090565b6000604051905090565b600080fd5b600080fd5b60007fffffffff0000000000000000000000000000000000000000000000000000000082169050919050565b61250d816124d8565b811461251857600080fd5b50565b60008135905061252a81612504565b92915050565b600060208284031215612546576125456124ce565b5b60006125548482850161251b565b91505092915050565b60008115159050919050565b6125728161255d565b82525050565b600060208201905061258d6000830184612569565b92915050565b600081519050919050565b600082825260208201905092915050565b60005b838110156125cd5780820151818401526020810190506125b2565b838111156125dc576000848401525b50505050565b6000601f19601f8301169050919050565b60006125fe82612593565b612608818561259e565b93506126188185602086016125af565b612621816125e2565b840191505092915050565b6000602082019050818103600083015261264681846125f3565b905092915050565b6000819050919050565b6126618161264e565b811461266c57600080fd5b50565b60008135905061267e81612658565b92915050565b60006020828403121561269a576126996124ce565b5b60006126a88482850161266f565b91505092915050565b600073ffffffffffffffffffffffffffffffffffffffff82169050919050565b60006126dc826126b1565b9050919050565b6126ec816126d1565b82525050565b600060208201905061270760008301846126e3565b92915050565b612716816126d1565b811461272157600080fd5b50565b6000813590506127338161270d565b92915050565b600080604083850312156127505761274f6124ce565b5b600061275e85828601612724565b925050602061276f8582860161266f565b9150509250929050565b6127828161264e565b82525050565b600060208201905061279d6000830184612779565b92915050565b600080fd5b7f4e487b7100000000000000000000000000000000000000000000000000000000600052604160045260246000fd5b6127e0826125e2565b810181811067ffffffffffffffff821117156127ff576127fe6127a8565b5b80604052505050565b60006128126124c4565b905061281e82826127d7565b919050565b600067ffffffffffffffff82111561283e5761283d6127a8565b5b602082029050602081019050919050565b600080fd5b600061286761286284612823565b612808565b9050808382526020820190506020840283018581111561288a5761288961284f565b5b835b818110156128b3578061289f888261266f565b84526020840193505060208101905061288c565b5050509392505050565b600082601f8301126128d2576128d16127a3565b5b81356128e2848260208601612854565b91505092915050565b60008060408385031215612902576129016124ce565b5b60006129108582860161266f565b925050602083013567ffffffffffffffff811115612931576129306124d3565b5b61293d858286016128bd565b9150509250929050565b6000806000606084860312156129605761295f6124ce565b5b600061296e86828701612724565b935050602061297f86828701612724565b92505060406129908682870161266f565b9150509250925092565b600060039050919050565b600081905092915050565b6000819050919050565b6129c38161264e565b82525050565b60006129d583836129ba565b60208301905092915050565b6000602082019050919050565b6129f78161299a565b612a0181846129a5565b9250612a0c826129b0565b8060005b83811015612a3d578151612a2487826129c9565b9650612a2f836129e1565b925050600181019050612a10565b505050505050565b6000606082019050612a5a60008301846129ee565b92915050565b600060208284031215612a7657612a756124ce565b5b6000612a8484828501612724565b91505092915050565b600081519050919050565b600082825260208201905092915050565b6000819050602082019050919050565b600082825260208201905092915050565b6000612ad582612593565b612adf8185612ab9565b9350612aef8185602086016125af565b612af8816125e2565b840191505092915050565b6000612b0f8383612aca565b905092915050565b6000602082019050919050565b6000612b2f82612a8d565b612b398185612a98565b935083602082028501612b4b85612aa9565b8060005b85811015612b875784840389528151612b688582612b03565b9450612b7383612b17565b925060208a01995050600181019050612b4f565b50829750879550505050505092915050565b60006020820190508181036000830152612bb38184612b24565b905092915050565b612bc48161255d565b8114612bcf57600080fd5b50565b600081359050612be181612bbb565b92915050565b60008060408385031215612bfe57612bfd6124ce565b5b6000612c0c85828601612724565b9250506020612c1d85828601612bd2565b9150509250929050565b7f4e487b7100000000000000000000000000000000000000000000000000000000600052602160045260246000fd5b60038110612c6757612c66612c27565b5b50565b6000819050612c7882612c56565b919050565b6000612c8882612c6a565b9050919050565b612c9881612c7d565b82525050565b6000602082019050612cb36000830184612c8f565b92915050565b600080fd5b600067ffffffffffffffff821115612cd957612cd86127a8565b5b612ce2826125e2565b9050602081019050919050565b82818337600083830152505050565b6000612d11612d0c84612cbe565b612808565b905082815260208101848484011115612d2d57612d2c612cb9565b5b612d38848285612cef565b509392505050565b600082601f830112612d5557612d546127a3565b5b8135612d65848260208601612cfe565b91505092915050565b60008060008060808587031215612d8857612d876124ce565b5b6000612d9687828801612724565b9450506020612da787828801612724565b9350506040612db88782880161266f565b925050606085013567ffffffffffffffff811115612dd957612dd86124d3565b5b612de587828801612d40565b91505092959194509250565b60008060408385031215612e0857612e076124ce565b5b6000612e1685828601612724565b9250506020612e2785828601612724565b9150509250929050565b7f4e487b7100000000000000000000000000000000000000000000000000000000600052602260045260246000fd5b60006002820490506001821680612e7857607f821691505b60208210811415612e8c57612e8b612e31565b5b50919050565b7f4552433732313a20617070726f76616c20746f2063757272656e74206f776e6560008201527f7200000000000000000000000000000000000000000000000000000000000000602082015250565b6000612eee60218361259e565b9150612ef982612e92565b604082019050919050565b60006020820190508181036000830152612f1d81612ee1565b9050919050565b7f4552433732313a20617070726f76652063616c6c6572206973206e6f7420746f60008201527f6b656e206f776e6572206e6f7220617070726f76656420666f7220616c6c0000602082015250565b6000612f80603e8361259e565b9150612f8b82612f24565b604082019050919050565b60006020820190508181036000830152612faf81612f73565b9050919050565b6000604082019050612fcb60008301856126e3565b612fd860208301846126e3565b9392505050565b7f4552433732313a2063616c6c6572206973206e6f7420746f6b656e206f776e6560008201527f72206e6f7220617070726f766564000000000000000000000000000000000000602082015250565b600061303b602e8361259e565b915061304682612fdf565b604082019050919050565b6000602082019050818103600083015261306a8161302e565b9050919050565b600081905092915050565b50565b600061308c600083613071565b91506130978261307c565b600082019050919050565b60006130ad8261307f565b9150819050919050565b7f4552433732313a20696e76616c696420746f6b656e2049440000000000000000600082015250565b60006130ed60188361259e565b91506130f8826130b7565b602082019050919050565b6000602082019050818103600083015261311c816130e0565b9050919050565b7f4552433732313a2061646472657373207a65726f206973206e6f74206120766160008201527f6c6964206f776e65720000000000000000000000000000000000000000000000602082015250565b600061317f60298361259e565b915061318a82613123565b604082019050919050565b600060208201905081810360008301526131ae81613172565b9050919050565b7f4e487b7100000000000000000000000000000000000000000000000000000000600052603260045260246000fd5b7f4e487b7100000000000000000000000000000000000000000000000000000000600052601160045260246000fd5b600061321e8261264e565b91507fffffffffffffffffffffffffffffffffffffffffffffffffffffffffffffffff821415613251576132506131e4565b5b600182019050919050565b6000819050919050565b61326f8161325c565b82525050565b600067ffffffffffffffff82169050919050565b61329281613275565b82525050565b600061ffff82169050919050565b6132af81613298565b82525050565b600063ffffffff82169050919050565b6132ce816132b5565b82525050565b600060a0820190506132e96000830188613266565b6132f66020830187613289565b61330360408301866132a6565b61331060608301856132c5565b61331d60808301846132c5565b9695505050505050565b60008151905061333681612658565b92915050565b600060208284031215613352576133516124ce565b5b600061336084828501613327565b91505092915050565b600081905092915050565b600061337f82612593565b6133898185613369565b93506133998185602086016125af565b80840191505092915050565b60006133b18285613374565b91506133bd8284613374565b91508190509392505050565b7f4f776e61626c653a206e6577206f776e657220697320746865207a65726f206160008201527f6464726573730000000000000000000000000000000000000000000000000000602082015250565b600061342560268361259e565b9150613430826133c9565b604082019050919050565b6000602082019050818103600083015261345481613418565b9050919050565b60006134668261264e565b91506134718361264e565b9250827fffffffffffffffffffffffffffffffffffffffffffffffffffffffffffffffff038211156134a6576134a56131e4565b5b828201905092915050565b7f4e487b7100000000000000000000000000000000000000000000000000000000600052601260045260246000fd5b60006134eb8261264e565b91506134f68361264e565b925082613506576135056134b1565b5b828206905092915050565b60006040820190506135266000830185612c8f565b61353360208301846126e3565b9392505050565b7f4552433732313a207472616e736665722066726f6d20696e636f72726563742060008201527f6f776e6572000000000000000000000000000000000000000000000000000000602082015250565b600061359660258361259e565b91506135a18261353a565b604082019050919050565b600060208201905081810360008301526135c581613589565b9050919050565b7f4552433732313a207472616e7366657220746f20746865207a65726f2061646460008201527f7265737300000000000000000000000000000000000000000000000000000000602082015250565b600061362860248361259e565b9150613633826135cc565b604082019050919050565b600060208201905081810360008301526136578161361b565b9050919050565b60006136698261264e565b91506136748361264e565b925082821015613687576136866131e4565b5b828203905092915050565b7f4f776e61626c653a2063616c6c6572206973206e6f7420746865206f776e6572600082015250565b60006136c860208361259e565b91506136d382613692565b602082019050919050565b600060208201905081810360008301526136f7816136bb565b9050919050565b7f4552433732313a20617070726f766520746f2063616c6c657200000000000000600082015250565b600061373460198361259e565b915061373f826136fe565b602082019050919050565b6000602082019050818103600083015261376381613727565b9050919050565b7f4552433732313a207472616e7366657220746f206e6f6e20455243373231526560008201527f63656976657220696d706c656d656e7465720000000000000000000000000000602082015250565b60006137c660328361259e565b91506137d18261376a565b604082019050919050565b600060208201905081810360008301526137f5816137b9565b9050919050565b7f45524337323155524953746f726167653a2055524920736574206f66206e6f6e60008201527f6578697374656e7420746f6b656e000000000000000000000000000000000000602082015250565b6000613858602e8361259e565b9150613863826137fc565b604082019050919050565b600060208201905081810360008301526138878161384b565b9050919050565b600081519050919050565b600082825260208201905092915050565b60006138b58261388e565b6138bf8185613899565b93506138cf8185602086016125af565b6138d8816125e2565b840191505092915050565b60006080820190506138f860008301876126e3565b61390560208301866126e3565b6139126040830185612779565b818103606083015261392481846138aa565b905095945050505050565b60008151905061393e81612504565b92915050565b60006020828403121561395a576139596124ce565b5b60006139688482850161392f565b91505092915050565b600061397c8261264e565b91506139878361264e565b925082613997576139966134b1565b5b828204905092915050565b7f4552433732313a206d696e7420746f20746865207a65726f2061646472657373600082015250565b60006139d860208361259e565b91506139e3826139a2565b602082019050919050565b60006020820190508181036000830152613a07816139cb565b9050919050565b7f4552433732313a20746f6b656e20616c7265616479206d696e74656400000000600082015250565b6000613a44601c8361259e565b9150613a4f82613a0e565b602082019050919050565b60006020820190508181036000830152613a7381613a37565b905091905056fea2646970667358221220d4e6859b63daa496cd1ea583cc930f1d9b9767fa96a165d992f22b0b8a37bc1b64736f6c63430008080033",
  "devdoc": {
    "kind": "dev",
    "methods": {
      "approve(address,uint256)": {
        "details": "See {IERC721-approve}."
      },
      "balanceOf(address)": {
        "details": "See {IERC721-balanceOf}."
      },
      "getApproved(uint256)": {
        "details": "See {IERC721-getApproved}."
      },
      "isApprovedForAll(address,address)": {
        "details": "See {IERC721-isApprovedForAll}."
      },
      "name()": {
        "details": "See {IERC721Metadata-name}."
      },
      "owner()": {
        "details": "Returns the address of the current owner."
      },
      "ownerOf(uint256)": {
        "details": "See {IERC721-ownerOf}."
      },
      "renounceOwnership()": {
        "details": "Leaves the contract without owner. It will not be possible to call `onlyOwner` functions anymore. Can only be called by the current owner. NOTE: Renouncing ownership will leave the contract without an owner, thereby removing any functionality that is only available to the owner."
      },
      "safeTransferFrom(address,address,uint256)": {
        "details": "See {IERC721-safeTransferFrom}."
      },
      "safeTransferFrom(address,address,uint256,bytes)": {
        "details": "See {IERC721-safeTransferFrom}."
      },
      "setApprovalForAll(address,bool)": {
        "details": "See {IERC721-setApprovalForAll}."
      },
      "supportsInterface(bytes4)": {
        "details": "See {IERC165-supportsInterface}."
      },
      "symbol()": {
        "details": "See {IERC721Metadata-symbol}."
      },
      "tokenURI(uint256)": {
        "details": "See {IERC721Metadata-tokenURI}."
      },
      "transferFrom(address,address,uint256)": {
        "details": "See {IERC721-transferFrom}."
      },
      "transferOwnership(address)": {
        "details": "Transfers ownership of the contract to a new account (`newOwner`). Can only be called by the current owner."
      }
    },
    "version": 1
  },
  "userdoc": {
    "kind": "user",
    "methods": {},
    "version": 1
  },
  "storageLayout": {
    "storage": [
      {
        "astId": 285,
        "contract": "contracts/RandomIpfsNft.sol:RandomIpfsNft",
        "label": "_name",
        "offset": 0,
        "slot": "0",
        "type": "t_string_storage"
      },
      {
        "astId": 287,
        "contract": "contracts/RandomIpfsNft.sol:RandomIpfsNft",
        "label": "_symbol",
        "offset": 0,
        "slot": "1",
        "type": "t_string_storage"
      },
      {
        "astId": 291,
        "contract": "contracts/RandomIpfsNft.sol:RandomIpfsNft",
        "label": "_owners",
        "offset": 0,
        "slot": "2",
        "type": "t_mapping(t_uint256,t_address)"
      },
      {
        "astId": 295,
        "contract": "contracts/RandomIpfsNft.sol:RandomIpfsNft",
        "label": "_balances",
        "offset": 0,
        "slot": "3",
        "type": "t_mapping(t_address,t_uint256)"
      },
      {
        "astId": 299,
        "contract": "contracts/RandomIpfsNft.sol:RandomIpfsNft",
        "label": "_tokenApprovals",
        "offset": 0,
        "slot": "4",
        "type": "t_mapping(t_uint256,t_address)"
      },
      {
        "astId": 305,
        "contract": "contracts/RandomIpfsNft.sol:RandomIpfsNft",
        "label": "_operatorApprovals",
        "offset": 0,
        "slot": "5",
        "type": "t_mapping(t_address,t_mapping(t_address,t_bool))"
      },
      {
        "astId": 1273,
        "contract": "contracts/RandomIpfsNft.sol:RandomIpfsNft",
        "label": "_tokenURIs",
        "offset": 0,
        "slot": "6",
        "type": "t_mapping(t_uint256,t_string_storage)"
      },
      {
        "astId": 154,
        "contract": "contracts/RandomIpfsNft.sol:RandomIpfsNft",
        "label": "_owner",
        "offset": 0,
        "slot": "7",
        "type": "t_address"
      },
      {
        "astId": 2034,
        "contract": "contracts/RandomIpfsNft.sol:RandomIpfsNft",
        "label": "s_requestIdToSender",
        "offset": 0,
        "slot": "8",
        "type": "t_mapping(t_uint256,t_address)"
      },
      {
        "astId": 2036,
        "contract": "contracts/RandomIpfsNft.sol:RandomIpfsNft",
        "label": "s_tokenCounter",
        "offset": 0,
        "slot": "9",
        "type": "t_uint256"
      },
      {
        "astId": 2042,
        "contract": "contracts/RandomIpfsNft.sol:RandomIpfsNft",
        "label": "s_dogTokenUris",
        "offset": 0,
        "slot": "10",
        "type": "t_array(t_string_storage)dyn_storage"
      },
      {
        "astId": 2046,
        "contract": "contracts/RandomIpfsNft.sol:RandomIpfsNft",
        "label": "s_initialized",
        "offset": 0,
        "slot": "11",
        "type": "t_bool"
      }
    ],
    "types": {
      "t_address": {
        "encoding": "inplace",
        "label": "address",
        "numberOfBytes": "20"
      },
      "t_array(t_string_storage)dyn_storage": {
        "base": "t_string_storage",
        "encoding": "dynamic_array",
        "label": "string[]",
        "numberOfBytes": "32"
      },
      "t_bool": {
        "encoding": "inplace",
        "label": "bool",
        "numberOfBytes": "1"
      },
      "t_mapping(t_address,t_bool)": {
        "encoding": "mapping",
        "key": "t_address",
        "label": "mapping(address => bool)",
        "numberOfBytes": "32",
        "value": "t_bool"
      },
      "t_mapping(t_address,t_mapping(t_address,t_bool))": {
        "encoding": "mapping",
        "key": "t_address",
        "label": "mapping(address => mapping(address => bool))",
        "numberOfBytes": "32",
        "value": "t_mapping(t_address,t_bool)"
      },
      "t_mapping(t_address,t_uint256)": {
        "encoding": "mapping",
        "key": "t_address",
        "label": "mapping(address => uint256)",
        "numberOfBytes": "32",
        "value": "t_uint256"
      },
      "t_mapping(t_uint256,t_address)": {
        "encoding": "mapping",
        "key": "t_uint256",
        "label": "mapping(uint256 => address)",
        "numberOfBytes": "32",
        "value": "t_address"
      },
      "t_mapping(t_uint256,t_string_storage)": {
        "encoding": "mapping",
        "key": "t_uint256",
        "label": "mapping(uint256 => string)",
        "numberOfBytes": "32",
        "value": "t_string_storage"
      },
      "t_string_storage": {
        "encoding": "bytes",
        "label": "string",
        "numberOfBytes": "32"
      },
      "t_uint256": {
        "encoding": "inplace",
        "label": "uint256",
        "numberOfBytes": "32"
      }
    }
  }
}